:10000000000004201902000001020000295900002C
:1000100005020000070200000902000000000000C5
:100020000000000000000000000000000B020000C3
:100030000D020000000000000F020000110200008D
:100040008919000013020000291A00009919000004
:10005000BD1900001302000005120000712100000C
:10006000213000003930000051300000B520000080
:1000700013020000ED1E0000130200001302000036
:100080006D46000049480000591D0000051A000097
:10009000B52E0000C12E0000CD2E0000D92E00008C
:1000A000E52E0000F12E00006930000081300000D4
:1000B0005D1C0000DD1500000000000000000000D5
:1000C00013020000751C00008D1C0000E1190000E7
:1000D000C9200000811300001302000071440000D9
:1000E00013020000711E0000130200000000000057
:1000F00000000000A51C000000000000112E000000
:1001000000000000000000000000000000000000EF
:1001100000000000000000000000000000000000DF
:1001200000000000000000000000000000000000CF
:1001300000000000000000000000000000000000BF
:1001400000000000000000000000000000000000AF
:10015000000000000000000000000000000000009F
:10016000000000000000000000000000000000008F
:10017000000000000000000000000000000000007F
:10018000000000000000000000000000000000006F
:10019000000000000000000000000000000000005F
:1001A000000000000000000000000000000000004F
:1001B000000000000000000000000000000000003F
:1001C000000000000000000000000000000000002F
:1001D000000000000000000000000000000000001F
:1001E000000000000000000000000000000000000F
:1001F00000000000000000000000000000000000FF
:10020000FEE7FEE7FEE7FEE7FEE7FEE7FEE7FEE7C6
:10021000FEE7FEE700F002B8FFF7FCBF0F484FF023
:100220000701884385460E4880470E48016841F41F
:1002300070010160BFF34F8FBFF36F8F00F01AB8EA
:1002400009480A490A4A884207D0521A05D0037859
:1002500001300B700131013AF9D1704700000420E0
:10026000810A000088ED00E0B88400000000002052
:1002700030000020344935480A1A02D00722914341
:100280008D46334933480A1A06D00722914381F339
:100290000988022282F314882F483049304A00F03E
:1002A00041F830483049314A00F03CF83048314993
:1002B000314A00F037F831483149324A00F032F81B
:1002C00031483249324A00F02DF832483249334A37
:1002D00000F028F832483349334A00F023F8334815
:1002E0003349002200F029F832483349002200F057
:1002F00024F832483249091A08F0ACF8314A9047DC
:100300001F482049884205D00268043003B4904752
:1003100003BCF7E700208646EC46002000212A4A6D
:100320009047FEE7884207D0521A05D00378013083
:100330000B700131013AF9D17047884202D0027046
:100340000130FAE7704700000000042000E00320BD
:100350000000042000000420689A00003000002003
:1003600048000020CC030000CC030000688400009B
:10037000689A00003000002030000020E88400006F
:10038000E8840000E8840000E8840000E8840000BD
:10039000E8840000E8840000E8840000659A00001A
:1003A000809A0000480000204800002048000020FB
:1003B000341400203414002034140020341400209D
:0C03C000343400204102000071060000EF
:1003CC0000B585B00190019B002B0AD0074B43F080
:1003DC0001030393019B9B010293039B0298984793
:1003EC0000E000BF05B05DF804FB00BF50850000C5
:1003FC0000B583B00190019B002B0AD04FF47A70AA
:10040C00FFF7DEFF019B013B0193019B002BF5D114
:10041C0000E000BF03B05DF804FB000000B583B042
:10042C000190019B1B68184600F09CF80346002BBA
:10043C0004D10B494FF4F67005F0D4FA019B1B68FC
:10044C001F2B02D84FF0A04306E0019B1B6803F062
:10045C001F02019B1A60034B184603B05DF804FBA6
:10046C00E88400000003005000B585B001900846F8
:10047C0011461A4603468DF803300B468DF80230B0
:10048C0013468DF8013001AB1846FFF7C7FF0390F8
:10049C009DF803209DF802305B001A439DF8013053
:1004AC009B001A439DF818301B0242EA03019DF889
:1004BC001C301B04019A1943039B02F5E07243F8AC
:1004CC00221000BF05B05DF804FB00B585B00390A9
:1004DC0000230193002300930023012201210398A0
:1004EC00FFF7C2FF00BF05B05DF804FB00B585B097
:1004FC00019001AB1846FFF791FF0390019B01227D
:10050C0002FA03F31946039800F018F800BF05B07F
:10051C005DF804FB00B585B0019001AB1846FFF700
:10052C007DFF0390019B012202FA03F31946039805
:10053C0000F00EF800BF05B05DF804FB82B001902E
:10054C000091019B009AC3F8082500BF02B07047C8
:10055C0082B001900091019B009AC3F80C2500BF5A
:10056C0002B0704784B00190019B5B090293002399
:10057C000393029B002B03D0029B012B04D007E0BA
:10058C004FF0FF33039303E04FF6FF73039300BF69
:10059C00019B03F01F030193039A019B22FA03F3BF
:1005AC0003F00103002B14BF01230023DBB2184618
:1005BC0004B0704782B00190009100BF02B0704748
:1005CC0010B584B0114B6C460FCB84E80F0004239C
:1005DC008DF800301B238DF801301A238DF8023072
:1005EC00FF238DF803304FF00073029301238DF835
:1005FC000C3000238DF80D3069460023044A054861
:10060C0002F03AF900BF04B010BD00BF2085000015
:10061C00C10500004085000010B584B00320FFF731
:10062C0079FF0D4B20221A700B4B00225A700B4B8A
:10063C006C460FCB84E80F006B4600221946084825
:10064C0002F0EAFA6420FFF7D3FE0320FFF74EFF17
:10065C0000BF04B010BD00BF480000203085000072
:10066C004085000008B50320FFF72FFF0320FFF79C
:10067C003DFF2B20FFF729FF2B20FFF74BFF2C20F2
:10068C00FFF723FF2C20FFF745FF4FF47A70FFF79D
:10069C00AFFE2C20FFF72AFF4FF47A70FFF7A8FE6D
:1006AC002B20FFF723FF4FF47A70FFF7A1FEFFF723
:1006BC0087FFFFF7B1FF4FF47A70FFF799FEF8E769
:1006CC00BFF34F8F00BF064BDB6803F4E0620449B5
:1006DC00044B1343CB60BFF34F8F00BF00BFFDE74C
:1006EC0000ED00E00400FA0582B0164B1B68019384
:1006FC00154B1B680093019B082B1FD1009B052BEE
:10070C001AD801A252F823F02D070000310700007F
:10071C0035070000390700003D07000041070000C5
:10072C0001230CE001230AE0012308E0012306E089
:10073C00012304E0012302E0012300E0002318461A
:10074C0002B07047300100103401001082B0164B1B
:10075C001B680193154B1B680093019B082B1FD141
:10076C00009B052B1AD801A252F823F09107000028
:10077C0095070000990700009D070000A1070000E5
:10078C00A507000001230CE001230AE0012308E087
:10079C00012306E0012304E0012302E0012300E031
:1007AC000023184602B070473001001034010010CD
:1007BC0082B0164B1B680193154B1B680093019B71
:1007CC00082B1FD1009B052B1AD801A252F823F03D
:1007DC00F5070000F9070000FD0700000108000004
:1007EC00050800000908000001230CE000230AE0C2
:1007FC00002308E0002306E0002304E0002302E0CD
:10080C00002300E00023184602B0704730010010AE
:10081C003401001082B0164B1B680193154B1B68FA
:10082C000093019B082B1FD1009B052B1AD801A20A
:10083C0052F823F0590800005D0800006108000020
:10084C0065080000690800006D08000001230CE039
:10085C0000230AE0002308E0002306E0002304E064
:10086C00002302E0002300E00023184602B070478A
:10087C00300100103401001082B0164B1B6801933C
:10088C00154B1B680093019B082B1FD1009B052B5C
:10089C001AD801A252F823F0BD080000C1080000CC
:1008AC00C5080000C9080000CD080000D1080000F0
:1008BC0001230CE000230AE0002308E0002306E0FB
:1008CC00002304E0002302E0002300E0002318468C
:1008DC0002B07047300100103401001082B0164B8A
:1008EC001B680193154B1B680093019B082B1FD1B0
:1008FC00009B052B1AD801A252F823F02109000005
:10090C0025090000290900002D090000310900000B
:10091C003509000001230CE000230AE0002308E065
:10092C00002306E0002304E0002302E0002300E0A3
:10093C000023184602B0704730010010340100103B
:10094C0082B0164B1B680193154B1B680093019BDF
:10095C00082B1FD1009B052B1AD801A252F823F0AB
:10096C0085090000890900008D090000910900002B
:10097C00950900009909000001230CE001230AE00D
:10098C00012308E0012306E0012304E0012302E037
:10099C00012300E00023184602B07047300100101C
:1009AC003401001082B0164B1B680193154B1B6869
:1009BC000093019B082B1FD1009B052B1AD801A279
:1009CC0052F823F0E9090000ED090000F1090000DC
:1009DC00F5090000F9090000FD09000000230CE0F6
:1009EC0000230AE0002308E0002306E0012304E0D2
:1009FC00012302E0012300E00023184602B07047F7
:100A0C00300100103401001008B5FFF7CBFF03468E
:100A1C00002B07D04FF010234FF08042D3F8083250
:100A2C00C2F8583500BF08BD00BF044BD3F80034E2
:100A3C00002BFAD000BF00BF704700BF00E00140A0
:100A4C0000B583B00190054A019BC2F80435FFF74D
:100A5C00EBFF00BF03B05DF804FB00BF00E00140FA
:100A6C00024B034A1A6000BF704700BF30000020E1
:100A7C000090D00308B5FFF737FE0346002B0ED0CD
:100A8C004FF080430022C3F80C214FF0804300222A
:100A9C00C3F810214FF080430022C3F83825FFF72C
:100AAC0055FE0346002B76D04FF08053734AD3F893
:100ABC000434C2F820354FF08053704AD3F8083410
:100ACC00C2F824354FF080536C4AD3F80C34C2F87A
:100ADC0028354FF08053694AD3F81034C2F82C35BE
:100AEC004FF08053654AD3F81434C2F830354FF0C8
:100AFC008053624AD3F81834C2F834354FF080531F
:100B0C005E4AD3F81C34C2F840354FF080535B4A30
:100B1C00D3F82034C2F844354FF08053574AD3F8F9
:100B2C002434C2F848354FF08053544AD3F8283453
:100B3C00C2F84C354FF08053504AD3F82C34C2F8DD
:100B4C0050354FF080534D4AD3F83034C2F85435F9
:100B5C004FF08053494AD3F83434C2F860354FF023
:100B6C008053464AD3F83834C2F864354FF080537A
:100B7C00424AD3F83C34C2F868354FF080533F4AB0
:100B8C00D3F84034C2F86C354FF080533B4AD3F85D
:100B9C004434C2F87035FFF70BFE0346002B02D02D
:100BAC00374B384A1A60FFF735FE0346002B03D04B
:100BBC00354BFB22C3F81825FFF75EFE0346002BCE
:100BCC000AD0324B1B6823F00F02314B1B6803F029
:100BDC000F032E4913430B60FFF780FE0346002BD7
:100BEC0003D02C4B4FF400721A60FFF7A9FE03469A
:100BFC00002B0DD04FF08043D3F8003403F00103E9
:100C0C00002B05D04FF080436FF00102C3F8002495
:100C1C00214BD3F88830204A43F47003C2F8883053
:100C2C00BFF34F8F00BFBFF36F8F00BFFFF7ECFE1A
:100C3C004FF01023D3F80032002B05DB4FF01023BC
:100C4C00D3F80432002B15DA0120FFF7F9FE4FF030
:100C5C0010231222C3F80022FFF7E6FE4FF01023F8
:100C6C001222C3F80422FFF7DFFE0020FFF7E8FE94
:100C7C00FFF726FDFFF7F4FE00BF08BD00C00040E3
:100C8C008C5600404881030000F00040E40E004008
:100C9C00580200104096024000ED00E010B487B0FE
:100CAC0001900091019B009A53E8004F04EA020066
:100CBC0043E8000191F0000FF6D1059404900391E4
:100CCC00059B184607B05DF8044B704782B0019045
:100CDC004FF08042019BC2F8083300BF02B070474E
:100CEC0084B00346ADF80630BDF8063003F18043FE
:100CFC0000221A60BDF8063003F180431B68039391
:100D0C00039B00BF04B0704782B00346ADF80630B9
:100D1C00BDF8063003F180431B68002B14BF012380
:100D2C000023DBB2184602B07047000008B54FF440
:100D3C008070FFF7E9FF0346002B14D04FF480704E
:100D4C00FFF7CEFF0120FFF7C1FF114B5B7983F05A
:100D5C000103DBB2002B06D00D4B01225A710C4B58
:100D6C001B68002098474FF48270FFF7CDFF0346B5
:100D7C00002B0AD04FF48270FFF7B2FF0220FFF76E
:100D8C00A5FF034B1B680120984700BF08BD00BF9F
:100D9C00A000002000B583B00346ADF80630BDF8C6
:100DAC000630184600F026F803461B68012B0CBFD2
:100DBC0001230023DBB2184603B05DF804FB00B539
:100DCC0085B00346ADF80630BDF80630184600F085
:100DDC0011F803461A4600231360BDF80630184676
:100DEC0000F008F803461B680393039B00BF05B093
:100DFC005DF804FB82B00346ADF80630BDF8063052
:100E0C0003F1804303F5C043184602B0704700005D
:100E1C0082B00190034BD3F80423019B1340184676
:100E2C0002B070470060004082B00190054A019BFF
:100E3C0003F5A27352F823301B0A03F03F03184644
:100E4C0002B070470060004082B00190064A019BDE
:100E5C0003F5A27352F823301B0C03F00303DBB22F
:100E6C00184602B0704700BF0060004000B583B068
:100E7C000190019B1B68184600F0AAF80346002B52
:100E8C0004D10B494FF4F67004F0ACFD019B1B68C8
:100E9C001F2B02D84FF0A04306E0019B1B6803F008
:100EAC001F02019B1A60034B184603B05DF804FB4C
:100EBC00FC8500000003005000B585B001900B4686
:100ECC008DF8033001AB1846FFF7D0FF0390019A61
:100EDC00039B02F5E07253F82230019A23F440315F
:100EEC00039B02F5E07243F82210019A039B02F572
:100EFC00E07253F822309DF8032012041146019A37
:100F0C001943039B02F5E07243F8221000BF05B0B1
:100F1C005DF804FB00B585B0019001AB1846FFF7F6
:100F2C00A5FF0390019A039B02F5E07253F822305F
:100F3C001B0C03F00303DBB2184605B05DF804FB91
:100F4C0088B0039002910192164A05AB92E8030017
:100F5C0083E80300039B079319E0079B9B00203356
:100F6C006B4453F80C3CD3F82025019B1A60079B6B
:100F7C009B0020336B4453F80C3C019A1268C3F865
:100F8C002025019B04330193079B01330793039A9C
:100F9C00029B1344079A9A42DFD300BF00BF08B0EC
:100FAC00704700BF3486000000B585B0019001ABDE
:100FBC001846FFF75BFF0390019B012202FA03F333
:100FCC001A46039BC3F8202500BF05B05DF804FB4F
:100FDC0084B00190019B5B09029300230393029B55
:100FEC00002B03D0029B012B04D007E04FF0FF3302
:100FFC00039303E04FF6FF73039300BF019B03F0D1
:10100C001F030193039A019B22FA03F303F00103DC
:10101C00002B14BF01230023DBB2184604B0704729
:10102C0084B001900091009B0393019BDB08029319
:10103C00019B03F0070301930122019B02FA03F3C6
:10104C000399029A0A4412781340184604B0704768
:10105C0082B00190044A019B1344303393F9003061
:10106C00184602B0704700BFA800002082B0019063
:10107C00034A019B52F82330184602B0704700BF58
:10108C00A800002084B00190074A019B13446033F0
:10109C0093F900308DF80F309DF80F3023F0C0031A
:1010AC00184604B0704700BFA800002084B001901F
:1010BC00074A019B1344603393F900308DF80F30CD
:1010CC009DF80F309B09DBB2184604B0704700BF87
:1010DC00A800002000B585B00190019A02210020E3
:1010EC00FFF72EFF002303930BE0039B9B00019A59
:1010FC0013441B68002B01D0012306E0039B013332
:10110C000393039B012BF0D90023184605B05DF81F
:10111C0004FB000000B587B00190002305935BE051
:10112C00344A059B1344603393F90030B3F1FF3F0D
:10113C004ED00598FFF7A6FF049001990498FFF78D
:10114C006FFF0346002B44D00598FFF7AFFF034613
:10115C008DF80F300498FFF7DDFE03468DF80E3046
:10116C009DF80E30022B01D1032300E002238DF8F1
:10117C000D309DF80D3019460498FFF79DFE04982C
:10118C00FFF712FF0498FFF763FF03461846FFF7BB
:10119C006DFF0290029B002B1BD09DF80F30032B90
:1011AC000FD09DF80E30022B03D19DF80F30012B80
:1011BC0007D09DF80E30032B0BD19DF80F30022B6E
:1011CC0007D19DF80F20029B11460498984700E028
:1011DC0000BF059B01330593059B032BA0D90198F8
:1011EC00FFF778FF0346002B97D100BF00BF07B075
:1011FC005DF804FBA800002000B58BB00023099318
:10120C0001AB00221A605A604FF48073ADF81E30A7
:10121C00012306930023089321E0BDF81E301846E5
:10122C00FFF7B8FD0346002B0ED00698FFF7F0FD34
:10123C000346002B08D0BDF81E301846FFF7BFFD43
:10124C00099A069B13430993069B5B000693BDF812
:10125C001E300433ADF81E30089B01330893089BF5
:10126C00072BDAD94FF4BE70FFF794FD0346002B21
:10127C000DD04FF4BE70FFF7A2FD099B43F0004365
:10128C00099301AB1A4602210020FFF759FE099B76
:10129C00DBB2002B29D0012306930023089321E015
:1012AC00069A099B1340002B16D00898FFF7BCFD3B
:1012BC0005900898FFF7C8FD03468DF81330089881
:1012CC00FFF7D4FE0390039B002B05D09DF8132051
:1012DC00039B114605989847069B5B000693089B59
:1012EC0001330893089B072BDAD9099B002B03DAEF
:1012FC0001AB1846FFF70EFF00BF0BB05DF804FB07
:10130C0084B001900B46ADF80230BDF80230019A62
:10131C00134400221A60BDF80230019A13441B6872
:10132C000393039B00BF04B0704782B001900B463F
:10133C00ADF80230BDF80230019A13441B68002B43
:10134C0014BF01230023DBB2184602B0704782B0F1
:10135C0001900091019B009AC3F8082300BF02B0D2
:10136C00704782B00190019B0022C3F8002500BF9A
:10137C0002B0704700B583B04FF48A717648FFF71E
:10138C00D4FF0346002B1CD04FF48A717248FFF730
:10139C00B7FF724A537943F0080353716F4B5B7973
:1013AC0003F00203DBB2002B0BD06C4B5B7903F028
:1013BC001003DBB2002B04D0684A537943F02003AE
:1013CC0053714FF482716448FFF7AFFF0346002B53
:1013DC001CD04FF482716048FFF792FF5F4A53793B
:1013EC0043F0040353715D4B5B7903F00103DBB2F3
:1013FC00002B0BD0594B5B7903F01003DBB2002BA5
:10140C0004D0564A537943F0200353714FF484713E
:10141C005148FFF78AFF0346002B19D04FF4847113
:10142C004D48FFF76DFF04214B48FFF790FF4A48EA
:10143C00FFF797FF494B1B68002149489847474BDA
:10144C001B68002147489847444B01221A717EE0E3
:10145C00424B5B7903F00203DBB2002B14D03F4B01
:10146C005B7903F00103DBB2002B0DD03B4B5B79B6
:10147C0003F00803DBB2002B06D0384B5B7903F08A
:10148C000403DBB2002B21D1344B5B79C3F3000393
:10149C00DBB283F00103DBB2002B06D02F4B5B7960
:1014AC0003F00803DBB2002B10D12C4B5B79C3F398
:1014BC004003DBB283F00103DBB2002B47D0274B98
:1014CC005B7903F00403DBB2002B40D0234A537941
:1014DC006FF3C3035371214A53796FF38203537132
:1014EC001E4B5B7903F02003DBB2002B0FD01B4AA1
:1014FC0053796FF345135371184A537943F0100322
:10150C005371164B1B680121002098471FE0134AAA
:10151C006B46103292E8030083E803000F4B0F4A2E
:10152C001033083292E8030083E803000B4B0022CF
:10153C009A600A4B0022DA60084A537943F0100390
:10154C005371064B1B686A4601211046984700BF31
:10155C0003B05DF804FB00BF0050024014010020F2
:10156C00240100201C01002082B00346ADF8063097
:10157C00BDF8063003F1804303F5E8331B68002BFC
:10158C0014BF01230023DBB2184602B0704784B0AD
:10159C000346ADF80630BDF8063003F1804303F581
:1015AC00E83300221A60BDF8063003F1804303F5DE
:1015BC00E8331B680393039B00BF04B07047000023
:1015CC00024B0022C3F8002500BF704700D0014039
:1015DC0000B58FB04FF48070FFF7C6FF0346002BA9
:1015EC0068D04FF48070FFF7D2FF6C4B9B7C8DF86A
:1015FC0036306A4B9B7C03F00103002B0CBF01239C
:10160C000023DBB28DF835309DF83530634A9B00F2
:10161C0013445B68002B04D1604B5B7CDBB2022B68
:10162C002BD100238DF830305C4B0022DA745B4BED
:10163C005B7CDBB2022B05D100230B93574B0122B1
:10164C005A7411E09DF83630544A9B0013445B6881
:10165C000B939DF83630514A9B00134400225A607C
:10166C004E4A9DF83530937401238DF828304B4B3E
:10167C001B680AAA1046984713E0484BDB7C002BEA
:10168C000FD100238DF81C300023089301238DF813
:10169C002430424B0122DA74404B1B6807AA1046D7
:1016AC0098473E4B5B7CDBB2022B5DD13B4B01225E
:1016BC005A7459E04FF48270FFF756FF0346002B23
:1016CC0052D04FF48270FFF762FFFFF779FF334B74
:1016DC0000225A7400238DF8183000238DF8103036
:1016EC002E4B9B7C2D4A9B0013445B68002B12D025
:1016FC002A4B9B7C294A9B0013445B680593274B20
:10170C009B7C264A9B00134400225A60234B1B6887
:10171C0004AA10469847214B9B7C03F00103002B35
:10172C000CBF01230023DBB28DF837309DF8373026
:10173C001A4A9B0013445B68002B12D09DF837307B
:10174C00164A9B0013445B6805939DF83730134A87
:10175C009B00134400225A60104B1B6804AA1046CD
:10176C0098470E4B00229A740C4B1B7DDBB2002B5E
:10177C000FD001238DF804300023029300238DF841
:10178C000C30064B00221A75044B1B6801AA10463C
:10179C00984700BF0FB05DF804FB00BF2C01002080
:1017AC0084B00346ADF80630BDF8063003F1804333
:1017BC0000221A60BDF8063003F180431B680393C6
:1017CC00039B00BF04B0704782B00346ADF80630EF
:1017DC00BDF8063003F180431B68002B14BF0123B6
:1017EC000023DBB2184602B0704700B585B0034643
:1017FC00ADF80630BDF806301846FFF7E5FF034696
:10180C008DF80F309DF80F30002B04D0BDF806304A
:10181C001846FFF7C5FF9DF80F30184605B05DF868
:10182C0004FB4FF08043D3F8043318467047000094
:10183C0000B583B0FFF7F5FF0190019B03F00403A3
:10184C00002B12D04FF48470FFF7CFFF0346002B10
:10185C000BD0464B1B68002B04D145494FF48B70C1
:10186C0004F0C0F8414B1B689847019B03F0200320
:10187C00002B13D04FF48A70FFF7B7FF0346002BF1
:10188C000CD03C4B1B68002B04D1394940F21F1083
:10189C0004F0A8F8374B1B6800209847019B03F015
:1018AC004003002B13D04FF48C70FFF79EFF0346C0
:1018BC00002B0CD02F4B1B68002B04D12C494FF460
:1018CC00937004F08FF82B4B1B6801209847019BF9
:1018DC0003F08003002B13D04FF48E70FFF785FFBD
:1018EC000346002B0CD0244B1B68002B04D1204941
:1018FC0040F22F1004F076F81F4B1B68002098471D
:10190C00019B03F48073002B13D04FF49070FFF7FE
:10191C006CFF0346002B0CD0174B1B68002B04D11B
:10192C0013494FF49B7004F05DF8134B1B680120B6
:10193C009847019B03F40073002B13D04FF4927063
:10194C00FFF753FF0346002B0CD00B4B1B68002BEF
:10195C0004D1074940F23D1004F044F8064B1B68D3
:10196C000220984700BF03B05DF804FB440100203F
:10197C0010870000480100204C01002008B5FFF73B
:10198C0057FFFFF7D3F900BF08BD000008B5064BA1
:10199C001B68002B03D10549452004F023F8024BAA
:1019AC001B68984708BD00BF500100206C870000E1
:1019BC0008B5064B1B68002B03D10549482004F0E1
:1019CC0011F8024B1B68984708BD00BF5801002056
:1019DC006C87000008B5064B1B68002B03D105492A
:1019EC004B2003F0FFFF024B1B68984708BD00BF5C
:1019FC00600100206C87000008B5064B1B68002BAB
:101A0C0003D105494E2003F0EDFF024B1B689847AC
:101A1C0008BD00BF680100206C87000008B5064BAC
:101A2C001B68002B03D10549512003F0DBFF024B4F
:101A3C001B68984708BD00BF700100206C87000030
:101A4C0082B00190019B104A934201D10F4B18E0D8
:101A5C00019BB3F1402F01D10D4B12E0019B0D4ABC
:101A6C00934201D10C4B0CE0019B0C4A934201D1E7
:101A7C000B4B06E0019B0B4A934201D10A4B00E051
:101A8C000023184602B0704700300040500100207F
:101A9C00580100200030024060010020003001405D
:101AAC0068010020002000407001002000B587B0C4
:101ABC0001900091019B002B03D11849772003F072
:101ACC0091FF0198FFF7BCFF0490049B002B1ED0E4
:101ADC0000238DF81730002002F068FE049B1B7960
:101AEC00002B03D001238DF8173005E0049B009ADE
:101AFC001A60049B01221A71002002F06BFE9DF803
:101B0C001730002B03D011230393039B02E0002317
:101B1C000393039B184607B05DF804FB6C87000029
:101B2C0084B001900B46ADF80230BDF80230019A3A
:101B3C00134400221A60BDF80230019A13441B684A
:101B4C000393039B00BF04B0704782B001900B4617
:101B5C00ADF80230BDF80230019A13441B68002B1B
:101B6C0014BF01230023DBB2184602B0704700B546
:101B7C0083B0019000914FF488710198FFF7E5FF55
:101B8C000346002B12D04FF488710198FFF7C8FF61
:101B9C00009B5B7903F00403002B07D0009B1B68B0
:101BAC00002B03D0009B1B68012098474FF48A71CF
:101BBC000198FFF7CAFF0346002B12D04FF48A712D
:101BCC000198FFF7ADFF009B5B7903F00803002B36
:101BDC0007D0009B1B68002B03D0009B1B680220C6
:101BEC0098474FF48E710198FFF7AFFF0346002B17
:101BFC0012D04FF48E710198FFF792FF009B5B7926
:101C0C0003F01003002B07D1009B1B68002B03D0A3
:101C1C00009B1B68002098474FF482710198FFF7D6
:101C2C0094FF0346002B0FD04FF482710198FFF7FD
:101C3C0077FF009B01221A71009B1B68002B03D0BD
:101C4C00009B1B680320984700BF03B05DF804FBA2
:101C5C0008B503490348FFF78AFF00BF08BD00BF62
:101C6C007801002000C0014008B503490348FFF784
:101C7C007EFF00BF08BD00BF8001002000100240A5
:101C8C0008B503490348FFF772FF00BF08BD00BF4A
:101C9C00880100200020024008B503490348FFF7E3
:101CAC0066FF00BF08BD00BF9001002000D00240BD
:101CBC0082B003468DF80730044BD3F804239DF80B
:101CCC0007301340184602B0704700BF0020014097
:101CDC0084B00346ADF80630BDF8063003F18043FE
:101CEC0003F5903300221A60BDF8063003F18043EF
:101CFC0003F590331B680393039B00BF04B070473C
:101D0C0082B00346ADF80630BDF8063003F18043CF
:101D1C0003F590331B68184602B07047024BD3F89A
:101D2C000C351846704700BF00200140024BD3F819
:101D3C0018351846704700BF00200140024BD3F8FD
:101D4C0048351846704700BF0020014000B583B0ED
:101D5C004FF48070FFF7D4FF0346002B19D00120FD
:101D6C00FFF7A6FF0346002B13D04FF48070FFF74C
:101D7C00AFFF4FF48073ADF80030FFF7CFFF034691
:101D8C005BB28DF80230264B1B686A4692E8030062
:101D9C0098474FF48270FFF7B3FF0346002B1FD018
:101DAC000220FFF785FF0346002B19D04FF48270F9
:101DBC00FFF78EFF4FF48273ADF80030FFF7B6FFDC
:101DCC0003461BB2ADF80230FFF7B8FF03469BB2D7
:101DDC00ADF80430124B1B686A4692E80300984732
:101DEC004FF48470FFF78CFF0346002B13D00420B4
:101DFC00FFF75EFF0346002B0DD04FF48470FFF706
:101E0C0067FF4FF48473ADF80030054B1B686A46CE
:101E1C0092E80300984700BF03B05DF804FB00BFD5
:101E2C009801002082B001900B46ADF80230BDF84D
:101E3C000230019A134400221A6000BF02B07047AE
:101E4C0082B001900B46ADF80230BDF80230019A19
:101E5C0013441B68002B14BF01230023DBB218466C
:101E6C0002B0704708B54FF480710B48FFF7E8FFDC
:101E7C000346002B0ED0094B00225A714FF480718F
:101E8C000548FFF7CFFF054B1B68044A92681146C3
:101E9C000020984700BF08BD009002409C01002024
:101EAC0084B00346ADF80630BDF8063003F180432C
:101EBC0003F5504300221A60BDF8063003F180434D
:101ECC0003F550431B680393039B00BF04B070479A
:101EDC00024BD3F80835DBB21846704700D00040EF
:101EEC0000B583B04FF48070FFF7DAFFFFF7F0FF17
:101EFC0003468DF80730054B1B689DF807201046EC
:101F0C00984700BF03B05DF804FB00BFA801002098
:101F1C0082B001900091019B009AC3F8082300BF86
:101F2C0002B0704782B001900091019BD3F804235A
:101F3C00009B1340184602B0704782B001900B46CC
:101F4C00ADF80230BDF80230019A13441B681846F4
:101F5C0002B0704784B001900B46ADF80230BDF86A
:101F6C000230019A134400221A60BDF80230019A23
:101F7C0013441B680393039B00BF04B0704782B0EB
:101F8C0001900091019B009AC3F8482300BF02B056
:101F9C007047000000B589B00390029101924FF494
:101FAC00803306934FF4A073ADF8163000230793DB
:101FBC0030E006990398FFF7B5FF0346002B1ED0BF
:101FCC00BDF8163019460398FFF7B7FF0346002BF0
:101FDC0015D006990398FFF7D2FF06990398FFF7DF
:101FEC0097FFBDF8163019460398FFF7B3FF2D4A3B
:101FFC00029B52F82330079AD2B210469847069BA0
:10200C005B000693BDF816300433ADF81630079B11
:10201C0001330793079A019B9A42CAD34FF48073FA
:10202C00ADF8163001210398FFF77CFF0346002B17
:10203C0014D0BDF8163019460398FFF77EFF0346FF
:10204C00002B0BD0BDF8163019460398FFF782FF12
:10205C00144A029B52F82330042098474FF48273A1
:10206C00ADF8163002210398FFF75CFF0346002BF6
:10207C0014D0BDF8163019460398FFF75EFF0346DF
:10208C00002B0BD0BDF8163019460398FFF762FFF2
:10209C00044A029B52F823300520984700BF09B030
:1020AC005DF804FBAC01002008B5032200210248B6
:1020BC00FFF770FF00BF08BD00B0004008B5042258
:1020CC0001210248FFF766FF00BF08BD0040024037
:1020DC0082B003468DF807309DF8073003F180433A
:1020EC0003F5E04301221A6000BF02B0704782B0D2
:1020FC000346ADF80630BDF8063003F1804303F516
:10210C00E0431B68002B14BF01230023DBB21846ED
:10211C0002B0704784B00346ADF80630BDF8063007
:10212C0003F1804303F5E04300221A60BDF806304A
:10213C0003F1804303F5E0431B680393039B00BF4B
:10214C0004B0704782B001900091054A019BC2F81F
:10215C002C36034A009BC2F8303600BF02B07047E1
:10216C000070004000B58FB04FF48270FFF7BFFFD6
:10217C000346002B46D04FF48270FFF7CBFF904BF9
:10218C0093F82E3083F00103DBB2002B04D18C4B7F
:10219C0093F82F30002B35D000238DF81C30884B52
:1021AC005B680893864B1B899BB2ADF82430844B3B
:1021BC00DB68002B03D1824B00221A7419E0804B90
:1021CC001A8B7F4B5A837E4BDB687D4A53607C4B6A
:1021DC001A8B7B4B1A817A4B0022DA60784B93F87E
:1021EC002E3083F00103DBB2002B02D00020FFF76E
:1021FC006FFF734B1B6807AA10469847704B002261
:10220C0083F82F206E4B93F82E30002B62D04FF4B6
:10221C008070FFF76CFF0346002B5BD04FF480708F
:10222C00FFF778FF664B5A8B654B93F82D309BB2BA
:10223C009A421CD9624B5A8B614B93F82D309BB24E
:10224C00D31A9AB25E4B5A835D4B5A685C4B1B890E
:10225C009BB219465A4B5B8BCB1A5B001344584A02
:10226C0092F82D2011461846FFF76CFF2BE0544BCB
:10227C005A8B534B93F82D309BB29A4214D1504B3E
:10228C00DB68002B10D04E4B012283F82F204C4BD7
:10229C0000225A834A4BDB68494A92F82D2011469A
:1022AC001846FFF74FFF0EE0454B5A8B444B93F803
:1022BC002D309BB29A4206D1414B012283F82F203C
:1022CC003F4B00225A834FF48270FFF723FF042008
:1022DC00FFF7FEFE4FF48870FFF709FF0346002B53
:1022EC000ED04FF48870FFF715FF354B00221A748F
:1022FC0002238DF81030324B1B6804AA1046984705
:10230C004FF48A70FFF7F3FE0346002B07D04FF40F
:10231C008A70FFF7FFFE2A4B00221A744CE0284B00
:10232C005B690D9345E00D9B0A930A9B002B01D131
:10233C00202303E00A9BB3FA83F3DBB20C934FF038
:10234C0000420C9B22FA03F3DB430D9A13400D93CE
:10235C000C9B9BB246339BB29B00ADF82E30BDF864
:10236C002E301846FFF7C3FE0346002B21D0BDF8D4
:10237C002E301846FFF7CEFE01238DF80430BDF841
:10238C002E30A3F58C73DB08DBB28DF80830BDF86A
:10239C002E30A3F58C7303F00403002B0CBF012328
:1023AC000023DBB28DF80930054B1B6801AA1046DF
:1023BC0098470D9B002BB6D100BF0FB05DF804FB06
:1023CC00B401002082B003468DF807309DF9073028
:1023DC00002B0CDB9DF8073003F01F0205499DF91B
:1023EC0007305B09012000FA02F241F8232000BFFC
:1023FC0002B0704700E100E082B0034600918DF816
:10240C0007309DF90730002B0ADB009BDAB20C4930
:10241C009DF907305201D2B20B4483F800230BE034
:10242C00009BDAB207499DF8073003F00F03043B19
:10243C005201D2B20B441A7600BF02B0704700BFF3
:10244C0000E100E000ED00E082B00190019B03F0A0
:10245C006043B3F1005F0CBF01230023DBB21846CD
:10246C0002B0704782B00190019B1B0B5BB2184607
:10247C0002B0704700B583B003460A468DF80730AA
:10248C0013468DF806309DF80630072B03D9084902
:10249C006B2003F0A7FA9DF806209DF90730114632
:1024AC001846FFF7A9FF00BF03B05DF804FB00BF9F
:1024BC00C887000000B583B003468DF807309DF93E
:1024CC0007301846FFF77EFF00BF03B05DF804FB32
:1024DC0082B001900B468DF803309DF80330019AC1
:1024EC00134401221A6000BF02B0704784B00190FF
:1024FC000B46ADF80230BDF80230019A13440022AD
:10250C001A60BDF80230019A13441B680393039BB5
:10251C0000BF04B0704782B001900B46ADF802309A
:10252C00BDF80230019A13441B68002B14BF012321
:10253C000023DBB2184602B0704782B001900091C4
:10254C00019B009AC3F8042300BF02B0704782B00D
:10255C0001900091019B009AC3F8082300BF02B0C0
:10256C00704782B00190019B0722C3F8002500BF81
:10257C0002B0704784B00390029101920093039BC8
:10258C00029AC3F80825039B019AC3F80C25039BF8
:10259C00009AC3F8102500BF04B0704782B00190B8
:1025AC000091009A019BC3F8242500BF02B070472C
:1025BC0084B0039002910192029A039BC3F84425C4
:1025CC00039B019AC3F8482500BF04B0704784B040
:1025DC00039002910192029A039BC3F83425039B4A
:1025EC00019AC3F8382500BF04B0704784B001903D
:1025FC000B468DF8033013468DF802309DF80230EF
:10260C00002B14BF01230023DBB203939DF803308E
:10261C00032B10D0032B13DC012B02D0022B05D083
:10262C000EE0039B43F0020303930AE0039B43F089
:10263C000403039305E0039B43F00603039300E0BC
:10264C0000BF019B039AC3F8542500BF04B0704728
:10265C0082B001900B468DF803309DF80320019B4E
:10266C00C3F8C02500BF02B0704782B00190019B37
:10267C000122C3F8502500BF02B0704782B0019010
:10268C00019B0022C3F8502500BF02B0704782B0F6
:10269C000190019B0122C3F8402500BF02B0704796
:1026AC0082B00190019B0022C3F8402500BF02B00C
:1026BC007047000000B583B00190019B1B68184661
:1026CC0000F0B1F80346002B04D10B494FF4F6701F
:1026DC0003F088F9019B1B681F2B02D84FF0A04315
:1026EC0006E0019B1B6803F01F02019B1A60034B61
:1026FC00184603B05DF804FB04880000000300508A
:10270C0000B585B00190084611461A4603468DF86F
:10271C0003300B468DF8023013468DF8013001ABB7
:10272C001846FFF7C7FF03909DF803209DF8023071
:10273C005B001A439DF801309B001A439DF818303A
:10274C001B0242EA03019DF81C301B04019A194339
:10275C00039B02F5E07243F8221000BF05B05DF850
:10276C0004FB00B585B00390002301930023009374
:10277C000023012201210398FFF7C2FF00BF05B01F
:10278C005DF804FB00B585B003900B468DF80B305B
:10279C009DF80B30002201920022009200220021B1
:1027AC000398FFF7ADFF00BF05B05DF804FB00B563
:1027BC0085B0019001AB1846FFF77CFF0390019B9D
:1027CC00012202FA03F31946039800F018F800BF2F
:1027DC0005B05DF804FB00B585B0019001AB18465F
:1027EC00FFF768FF0390019B012202FA03F31946DD
:1027FC00039800F00EF800BF05B05DF804FB82B042
:10280C0001900091019B009AC3F8082500BF02B00B
:10281C00704782B001900091019B009AC3F80C257F
:10282C0000BF02B0704784B00190019B5B0902931A
:10283C0000230393029B002B03D0029B012B04D09B
:10284C0007E04FF0FF33039303E04FF6FF7303935E
:10285C0000BF019B03F01F030193039A019B22FA13
:10286C0003F303F00103002B14BF01230023DBB29D
:10287C00184604B07047000000B58DB00590049167
:10288C0003920293049B002B03D16C49AD2003F0FF
:10289C00A9F8059B1B791A461346DB0013449B00D1
:1028AC00674A13440993099B1B7F002B03D0082311
:1028BC000793079BBDE0059B1B680893059B1A6853
:1028CC00059B1B7919465F4B53F82130194610466E
:1028DC00FFF7ECF80346002B03D011230793079B5B
:1028EC00A7E0099B039A1A60099B029A5A60049B01
:1028FC001B7B012B05D8049B1B781846FFF76BFF3D
:10290C0004E0049B1B781846FFF751FF049B1B78CF
:10291C001846002301930023009300230022012179
:10292C00FFF7EEFE049B5B78FF2B09D0049B5B78D2
:10293C000B930B98FFF74FFF0B98FFF712FF02E07A
:10294C004FF0FF330B93049B9B78FF2B07D0049B1A
:10295C009B780A9301210A98FFF714FF02E04FF0CD
:10296C00FF330A93049B9A78099B83F82020049BDD
:10297C00DA78099BDA77049BDB78FF2B17D0049B62
:10298C001B79002B05D0049BDB781846FFF723FF3F
:10299C0004E0049BDB781846FFF709FF049BDB7807
:1029AC001846FFF7DEFE049B1A79099B9A77049B65
:1029BC001B7819460A9B0B9A0898FFF7DBFD049BC2
:1029CC009B6819460898FFF7E9FD049B197B049B4B
:1029DC005B7B1A460898FFF709FE049B9B79194606
:1029EC000898FFF735FE0898FFF7BBFD099B1B689D
:1029FC00002B15D0059B1B681846FFF733FD0346CB
:102A0C001A46049B5B7919461046FFF733FD059B6C
:102A1C001B681846FFF726FD03461846FFF74AFDCC
:102A2C00099B00225A77099B01221A7700230793EE
:102A3C00079B18460DB05DF804FB00BF3C880000F6
:102A4C00E40100209888000000B583B00190019B40
:102A5C00DB7FFF2B0ED0019B9B7F002B05D0019BB6
:102A6C00DB7F1846FFF7B7FE04E0019BDB7F1846BF
:102A7C00FFF79DFE019B00225A77019B00221A72E0
:102A8C00019B1B68019A02F10800019A52681146D9
:102A9C00984700BF03B05DF804FB00B583B001900C
:102AAC000B468DF803309DF8033083F00103DBB245
:102ABC00002B04D040210198FFF749FD03E0402191
:102ACC000198FFF73AFD00BF03B05DF804FB00B5B9
:102ADC0083B001900091009B03F00103002B03D005
:102AEC000198FFF7C2FD02E00198FFF7C7FD009BBC
:102AFC0003F00203002B03D00198FFF7C8FD02E09E
:102B0C000198FFF7CDFD00BF03B05DF804FB00B5E5
:102B1C0087B00390029101920093019B1B68002BDC
:102B2C000AD0019B1B681846FFF78EFC034683F006
:102B3C000103DBB2002B0ED1019B9B68002B11D043
:102B4C00019B9B681846FFF77FFC034683F001034B
:102B5C00DBB2002B06D0029B00225A771023059380
:102B6C00059B54E0019B1968019B5B681A4603980E
:102B7C00FFF71EFD019B9968019BDB681A460398C1
:102B8C00FFF725FD4FF48C710398FFF7AFFC00990C
:102B9C000398FFF79CFF009B03F00803002B03D165
:102BAC0010210398FFF794FC029B1B68002B1FD18C
:102BBC0000BF4FF48C710398FFF7ADFC034683F014
:102BCC000103DBB2002BF4D1029BDB7FFF2B1BD06C
:102BDC00029B9B7F002B05D0029BDB7F1846FFF7E7
:102BEC00FAFD11E0029BDB7F1846FFF7E0FD0BE0DE
:102BFC00009B03F00403002B0CBF01230023DBB26A
:102C0C0019460398FFF749FF00230593059B1846C7
:102C1C0007B05DF804FB000010B586B0039002917C
:102C2C000192039B1B791A461346DB0013449B004D
:102C3C004F4A13440593059B1B7F002B04D14D4930
:102C4C0040F22D2002F0CEFE029B1B68002B08D117
:102C5C00029B5B68002B04D0464940F22E2002F008
:102C6C00C1FE029B9B68002B08D1029BDB68002BEA
:102C7C0004D0404940F22F2002F0B4FE039B1B7994
:102C8C00002B09D1029BDB68B3F5803F04D2029B79
:102C9C005B68B3F5803F2ED3039B1B79012B09D1C5
:102CAC00029BDB68B3F5803F04D2029B5B68B3F5F3
:102CBC00803F20D3039B1B79022B09D1029BDB683D
:102CCC00B3F5803F04D2029B5B68B3F5803F12D30F
:102CDC00039B1B79032B09D1029BDB68B3F5803F67
:102CEC0004D2029B5B68B3F5803F04D321494FF4B7
:102CFC000C7002F077FE00230493059B5B7FDBB224
:102D0C00002B03D011230493049B2EE0059B1B681E
:102D1C00002B07D0019B03F01403002B02D1059B61
:102D2C0001225A77059B029A03F10C0413460FCB30
:102D3C0084E80F00059BDB7FFF2B0ED0059B9B7F50
:102D4C00002B05D0059BDB7F1846FFF730FD04E018
:102D5C00059BDB7F1846FFF73EFD039B1868019B24
:102D6C00029A0599FFF7D3FE0346184606B010BD2C
:102D7C00E40100203C88000000B583B00190009174
:102D8C004FF48C710198FFF7C6FB0346002B10D053
:102D9C004FF48C710198FFF7A9FB009B1B68002B6B
:102DAC0004D1064940F2972002F01CFE0098FFF770
:102DBC004BFE00BF03B05DF804FB00BF3C88000075
:102DCC0008B503490348FFF7D7FF00BF08BD00BF94
:102DDC00E40100200030004008B503494FF04020CA
:102DEC00FFF7CAFF00BF08BD0802002008B5034961
:102DFC000348FFF7C1FF00BF08BD00BF2C02002035
:102E0C000030024008B503490348FFF7B5FF00BF87
:102E1C0008BD00BF5002002000F0024000B585B094
:102E2C0003468DF807309DF80730052B04D91B4954
:102E3C0040F2691002F0D6FD9DF80730184A52F89E
:102E4C0023300393039B002B04D1144940F26B10E5
:102E5C0002F0C8FD9DF80730124A32F81330ADF875
:102E6C000A309DF807300F4A32F813301AB2BDF908
:102E7C000A30DB431BB213401AB29DF8073091B2F3
:102E8C00084A22F81310BDF80A109DF80720039B7E
:102E9C001046984700BF05B05DF804FBE4880000BD
:102EAC00800200207402002008B50020FFF7B6FF56
:102EBC0000BF08BD08B50120FFF7B0FF00BF08BD7B
:102ECC0008B50220FFF7AAFF00BF08BD08B5032014
:102EDC00FFF7A4FF00BF08BD08B50420FFF79EFF55
:102EEC0000BF08BD08B50520FFF798FF00BF08BD5F
:102EFC0084B001900B46ADF80230BDF80230019A57
:102F0C00134400221A60BDF80230019A13441B6866
:102F1C000393039B00BF04B0704782B001900B4633
:102F2C00ADF80230BDF80230019A13441B68002B37
:102F3C0014BF01230023DBB2184602B0704782B0E5
:102F4C0001900091019BD3F80423009B1340002BAC
:102F5C0014BF01230023DBB2184602B0704782B0C5
:102F6C000190019B9B0003F5A0739BB2184602B025
:102F7C00704782B001904FF48032019B02FA03F348
:102F8C00184602B0704700B587B003900291134603
:102F9C008DF8073000238DF8173030E09DF817308E
:102FAC001846FFF7DCFF0346ADF814309DF81730D8
:102FBC001846FFF7DEFF0490BDF81430194603984D
:102FCC00FFF7ABFF0346002B14D004990398FFF7CF
:102FDC00B6FF0346002B0DD0BDF8143019460398EC
:102FEC00FFF786FF029B1B68029A5168BDF81420FC
:102FFC00104698479DF8173001338DF817309DF81F
:10300C0017209DF807309A42C8D300BF00BF07B005
:10301C005DF804FB08B5042202490348FFF7B3FF2F
:10302C0000BF08BD980200200080004008B50422B3
:10303C0002490348FFF7A7FF00BF08BDA402002008
:10304C000090004008B5042202490348FFF79BFF9B
:10305C0000BF08BDB002002000A0004008B5062249
:10306C0002490348FFF78FFF00BF08BDBC020020D8
:10307C0000A0014008B5062202490348FFF783FF70
:10308C0000BF08BDC802002000B0014082B0019012
:10309C00019B9A00024B1B681344184602B0704700
:1030AC00988A000082B00190019B03F1804303F5E4
:1030BC001C33184602B0704782B00190019B03F19B
:1030CC00804303F51C33184602B0704700B583B03B
:1030DC0003468DF807309DF807301846FFF7E2FFDE
:1030EC00034601221A60BFF36F8F00BFBFF34F8FEF
:1030FC0000BF00BF03B05DF804FB00B583B003460E
:10310C00ADF80630BDF806301846FFF7CBFF034686
:10311C0000221A60BFF36F8F00BFBFF34F8F00BF49
:10312C0000BF03B05DF804FB00B583B00346ADF8F7
:10313C000630BDF806301846FFF7BEFF03461B6885
:10314C00002B14BF01230023DBB2184603B05DF83B
:10315C0004FB00B585B00346ADF80630BDF806306B
:10316C001846FFF7E1FF03468DF80F309DF80F303E
:10317C00002B04D0BDF806301846FFF7BEFF9DF8B3
:10318C000F30184605B05DF804FB0000024BD3F875
:10319C0004331846704700BF00700240024BD3F84E
:1031AC0000341846704700BF0070024082B0019096
:1031BC00064A019BC2F80034BFF36F8F00BFBFF308
:1031CC004F8F00BF00BF02B0704700BF00700240BD
:1031DC0000B583B0FFF7E2FF01900198FFF7E6FF1F
:1031EC00BFF36F8F00BFBFF34F8F00BF019B18461B
:1031FC0003B05DF804FB0000024BD3F86C341846A6
:10320C00704700BF0070024082B00190064A019BDB
:10321C00C2F86C34BFF36F8F00BFBFF34F8F00BF8A
:10322C0000BF02B0704700BF0070024000B583B011
:10323C00FFF7E2FF01900198FFF7E6FF019B1846AC
:10324C0003B05DF804FB0000024BD3F88034DBB212
:10325C00184670470070024000B585B003468DF8E3
:10326C0007309DF90730002B05DA9DF8073003F085
:10327C000F03082B0EDD9DF90730002B05DB9DF8A5
:10328C00073003F00F03082B04DD1C4940F25F40AC
:10329C0002F0A8FB9DF90730002B04DA17494FF414
:1032AC008C6002F09FFB9DF8073003F00803002BA5
:1032BC000CD0134BD3F8C0340393039B03F480332B
:1032CC00002B01D000230393039B13E09DF80730E0
:1032DC0003F00803002B04D0084940F26B4002F0C5
:1032EC0081FB074A9DF8073003F00F0303F5947335
:1032FC0052F82330184605B05DF804FB78890000BD
:10330C000070024000B585B003468DF807309DF97A
:10331C000730002B05DA9DF8073003F00F03082B5C
:10332C000EDD9DF90730002B05DB9DF8073003F00F
:10333C000F03082B04DD184940F2714002F052FBD8
:10334C009DF90730002B04DA134940F2724002F069
:10335C0049FB9DF8073003F00803002B04D10E49FC
:10336C0040F2734002F03EFB0C4BD3F8C034039395
:10337C00039B002B03D14FF0FF33039306E0039B19
:10338C0003F48033002B01D000230393039B1846D6
:10339C0005B05DF804FB00BF7889000000700240A6
:1033AC0000B583B003468DF807309DF90730002B2C
:1033BC0005DB9DF8073003F00803002B04D00C4903
:1033CC0040F2834002F00EFB0A4A9DF8073003F0EE
:1033DC000F0303F59473002142F82310BFF36F8F92
:1033EC0000BFBFF34F8F00BF00BF03B05DF804FBFD
:1033FC00788900000070024082B003468DF80730D7
:10340C00034A9DF80730C2F8083500BF02B0704778
:10341C0000700240024BD3F820351846704700BFAD
:10342C0000700240044BD3F82C35002B14BF012341
:10343C000023DBB2184670470070024000B587B01D
:10344C000346029101928DF80F309DF90F30002B3D
:10345C0036DA9DF80F3003F00803002B08D0354AFC
:10346C00029BC2F8A036334A019BC2F8A4365DE039
:10347C009DF80F3003F00F038DF816309DF81630C1
:10348C00072B04D92C4940F2345002F0ABFA2949ED
:10349C009DF8162013469B0013449B000B4403F528
:1034AC00C063029A1A6023499DF8162013469B00AC
:1034BC0013449B000B4403F20463019A1A6035E039
:1034CC009DF80F3003F00803002B08D0194A029B1B
:1034DC00C2F8A037174A019BC2F8A43726E09DF822
:1034EC000F3003F00F038DF817309DF81730072BB2
:1034FC0004D9114940F2435002F074FA0D499DF879
:10350C00172013469B0013449B000B4403F5E06308
:10351C00029A1A6007499DF8172013469B00134422
:10352C009B000B4403F20473019A1A6000BF07B0AE
:10353C005DF804FB007002407889000082B0164BE5
:10354C001B680193154B1B680093019B082B1FD123
:10355C00009B052B1AD801A252F823F081350000EC
:10356C0085350000893500008D350000913500004F
:10357C009535000001230CE001230AE0012308E04B
:10358C00012306E0012304E0012302E0012300E013
:10359C000023184602B070473001001034010010AF
:1035AC0008B5FFF7CBFF0346184608BD00B583B03E
:1035BC0003468DF807309DF90730002B05DA9DF88E
:1035CC00073003F00F03082B0EDD9DF90730002B9D
:1035DC0005DB9DF8073003F00F03082B04DD0B49C6
:1035EC004FF4B97002F0FEF99DF90730002B01DAA7
:1035FC00074A00E0074A9DF8073003F00F035B0011
:10360C0013441B88184603B05DF804FBB089000016
:10361C00708A0000848A000000B583B003468DF8E0
:10362C0007309DF90730002B05DA9DF8073003F0C1
:10363C000F03082B0EDD9DF90730002B05DB9DF8E1
:10364C00073003F00F03082B04DD054940F28520F9
:10365C0002F0C8F99DF80730184603B05DF804FB7A
:10366C00B089000000B583B003468DF807309DF992
:10367C000730002B05DA9DF8073003F00F03082BF9
:10368C000EDD9DF90730002B05DB9DF8073003F0AC
:10369C000F03082B04DD0C4940F2922002F0A2F932
:1036AC009DF90730002B01DA042200E028229DF856
:1036BC00073003F00F03DBB29B00DBB21344DBB229
:1036CC00184603B05DF804FBB089000000B583B068
:1036DC0003468DF807309DF90730002B05DA9DF86D
:1036EC00073003F00F03082B0EDD9DF90730002B7C
:1036FC0005DB9DF8073003F00F03082B04DD0B49A5
:10370C0040F2A22002F06EF99DF90730002B01DA8D
:10371C00074A00E0074A9DF8073003F00F031B012E
:10372C001344184603B05DF804FB00BFB0890000D9
:10373C0078030020E802002000B583B003468DF822
:10374C0007309DF90730002B05DA9DF8073003F0A0
:10375C000F03082B0EDD9DF90730002B05DB9DF8C0
:10376C00073003F00F03082B04DD0B4940F2B520A2
:10377C0002F038F99DF90730002B01DA002200E045
:10378C0010229DF8073003F00F03DBB21344DBB2B9
:10379C00184603B05DF804FBB089000082B0034604
:1037AC008DF807309DF807300F2B04D99DF80730A2
:1037BC00103BDBB204E09DF8073063F07F03DBB213
:1037CC00184602B07047000008B5FFF7E9FE034643
:1037DC00002B02D0034B82221A60034B01221A7079
:1037EC0000BF08BD1C7C0240E402002008B5FFF7B6
:1037FC00D7FE0346002B02D0034B00221A60034B6A
:10380C0000221A7000BF08BD1C7C0240E40200209C
:10381C0000B583B003468DF807309DF80730184685
:10382C00FFF720FF03461846FFF750FC00BF03B01C
:10383C005DF804FB10B586B003468DF80730002008
:10384C0000F0B4FF9DF807301846FFF73FFF0590D6
:10385C009DF90730002B39DB614B1B68DC439DF86D
:10386C0007301846FFF768FF03461A4601239340BA
:10387C002340002B05D09DF80730184600F08EFE33
:10388C0020E0059B00221A609DF807301846FFF7D0
:10389C0053FF03461A4601239340DA43504B1B68EF
:1038AC0013404F4A13609DF807301846FFF744FF4A
:1038BC0003461A4601239340DA434A4B1B681340D4
:1038CC00484A1360059B03229A7383E09DF80730E6
:1038DC0003F00803002B37D19DF80730802B1CD048
:1038EC009DF8073003F00F0303F2DA333E4A5B0016
:1038FC0013603E4B1B688DF812309DF8123043F06C
:10390C0002038DF81230394B1A689DF81230374982
:10391C0013430B60354B1B6816E0334B40F2B4720B
:10392C001A60324B1B688DF813309DF8133043F03E
:10393C0004038DF813302D4B1A689DF813302B4966
:10394C0013430B60294B1B68264B1B68DA43244B33
:10395C001B6842EA03049DF807301846FFF7ECFE9B
:10396C0003461A46012393402340002B32D09DF886
:10397C0007301846FFF7E0FE03461A460123934032
:10398C00DA43174B1B681340154A13609DF8073038
:10399C001846FFF7D1FE03461A46012303FA02F23A
:1039AC00104B1B6813430F4A1360059B00221A60CF
:1039BC00059B03229A7306238DF80C309DF8073073
:1039CC008DF80E3003238DF80F30094B1B6803AABA
:1039DC0010469847002000F0FDFE00BF06B010BD59
:1039EC00E0020020DC020020007802400478024053
:1039FC00D402002000B583B0094B00221A70094B89
:103A0C0000221A700023019301238DF80430064B19
:103A1C001B6801AA1046984700BF03B05DF804FB71
:103A2C00D8020020D9020020D402002000BF704729
:103A3C0000B583B080238DF80730FFF7D7FE9DF8D3
:103A4C0007301846FFF742FE0090009B9B7B032B30
:103A5C000ED19DF807301846FFF76EFE03461A4646
:103A6C0001239340DB4319460C48FDF717F911E08D
:103A7C00009B1B68002B0DD19DF807301846FFF7F3
:103A8C005BFE03461A4601239340DB431946034869
:103A9C00FDF704F900BF03B05DF804FBE002002061
:103AAC0000B585B003468DF807309DF90730002B23
:103ABC0004DB264940F2B63001F094FF9DF8073044
:103ACC0003F00803002B04D0204940F2B73001F07A
:103ADC0089FF9DF8073003F00F03002B04DC1B4912
:103AEC004FF46E7001F07EFFFFF780FE9DF80730FB
:103AFC001846FFF7EBFD0390039B9B7B032B0ED12A
:103B0C009DF807301846FFF717FE03461A460123A7
:103B1C009340DB4319460E48FDF7C0F811E0039BB8
:103B2C001B68002B0DD19DF807301846FFF704FEDB
:103B3C0003461A4601239340DB4319460448FDF71C
:103B4C00ADF800BF05B05DF804FB00BFB089000004
:103B5C00E002002000B585B003468DF807309DF9D2
:103B6C000730002B04DB28494FF4757001F03AFF45
:103B7C009DF8073003F00803002B04D1224940F2D2
:103B8C00D53001F02FFFFFF731FE9DF807301846B6
:103B9C00FFF79CFD0390039B9B7B032B0ED19DF8A1
:103BAC0007301846FFF7C8FD03461A460123934019
:103BBC00DB4319461548FDF771F820E0039B1B68A1
:103BCC00002B1CD19DF807301846FFF7B5FD0346B6
:103BDC001A4601239340DB4319460C48FDF75EF867
:103BEC0006238DF808309DF807308DF80A30002335
:103BFC008DF80B30064B1B6802AA1046984700BF85
:103C0C0005B05DF804FB00BFB0890000E0020020A5
:103C1C00D402002000B585B000238DF80F30FFF7DB
:103C2C00E5FD9DF80F301846FFF750FD0290029B02
:103C3C009B7B032B0ED19DF80F301846FFF77CFDB4
:103C4C0003461A4601239340DB4319461548FDF7FA
:103C5C0025F823E0029B1B68002B1DD19DF80F302B
:103C6C001846FFF769FD03461A4601239340DB43D0
:103C7C0019460C48FDF712F806238DF804309DF810
:103C8C000F308DF8063000238DF80730064B1B687B
:103C9C0001AA1046984701E000F079FC00BF05B07E
:103CAC005DF804FBE0020020D402002000B585B0D2
:103CBC0003468DF807309DF90730002B04DA2E49A6
:103CCC0040F2144001F08EFE9DF8073003F008031B
:103CDC00002B04D0284940F2154001F083FE9DF8DA
:103CEC00073003F00F03002B04DC234940F216408D
:103CFC0001F078FEFFF77AFD9DF807301846FFF7C4
:103D0C00E5FC0390039B9B7B032B0ED19DF80730A6
:103D1C001846FFF711FD03461A4601239340DB4377
:103D2C0019461648FCF7BAFF20E0039B1B68002BD2
:103D3C001CD19DF807301846FFF7FEFC03461A46C7
:103D4C0001239340DB4319460C48FCF7A7FF0623DD
:103D5C008DF808309DF807308DF80A3000238DF867
:103D6C000B30074B1B6802AA1046984700F080FAEC
:103D7C0000BF05B05DF804FBB0890000E002002034
:103D8C00D402002000B585B003468DF807309DF8AD
:103D9C00073003F00803002B04D11B4940F23A40D2
:103DAC0001F020FEFFF722FD9DF807301846FFF7C3
:103DBC008DFC0390039B9B7B032B20D0039B1B68E8
:103DCC00002B1CD19DF807301846FFF7B5FC0346B5
:103DDC001A4601239340DB4319460C48FCF75EFF5F
:103DEC0006238DF808309DF807308DF80A30002333
:103DFC008DF80B30064B1B6802AA1046984700BF83
:103E0C0005B05DF804FB00BFB0890000E0020020A3
:103E1C00D402002008B5FFF70BFE00BF08BD08B5A3
:103E2C008120FFF73DFE00BF08BD08B58220FFF7DB
:103E3C0037FE00BF08BD08B58320FFF731FE00BF79
:103E4C0008BD08B58420FFF72BFE00BF08BD08B5E0
:103E5C008520FFF725FE00BF08BD08B58620FFF7BB
:103E6C001FFE00BF08BD08B58720FFF719FE00BF75
:103E7C0008BD08B58820FFF76DFE00BF08BD08B56A
:103E8C00FFF7C8FE00BF08BD08B50120FFF70EFF05
:103E9C0000BF08BD08B50220FFF708FF00BF08BD32
:103EAC0008B50320FFF702FF00BF08BD08B50420CA
:103EBC00FFF7FCFE00BF08BD08B50520FFF7F6FEB6
:103ECC0000BF08BD08B50620FFF7F0FE00BF08BD17
:103EDC0008B50720FFF7EAFE00BF08BD08B50820AB
:103EEC00FFF750FF00BF08BD00B583B000238DF86D
:103EFC000030FFF78FFA03469BB2ADF802308820F2
:103F0C00FFF71AFC03461A4601239340019308203D
:103F1C00FFF7F8F90346B3F1FF3F09D00820FFF78C
:103F2C000BFC03461A4601239340019A1343019359
:103F3C00074B1A68019B1343054A1360054B1B681A
:103F4C006A461046984700BF03B05DF804FB00BFFB
:103F5C00DC020020D402002000B585B003460A46DE
:103F6C008DF8073013468DF806309DF80630012287
:103F7C009A402B4B1B681343294A13609DF9073059
:103F8C00002B30DA9DF807301846FFF70FFB03467D
:103F9C001846FFF7DEF80346002B0BD09DF80730D0
:103FAC00802B05D09DF807301846FFF779FD01E00E
:103FBC00FFF73EFD9DF8063001229A40194B1B6815
:103FCC001340002B27D106238DF80C309DF80730B9
:103FDC008DF80E3000238DF80F30134B1B6803AA9D
:103FEC001046984717E09DF8063001229A400D4B79
:103FFC001B681340002B0ED106238DF808309DF85A
:10400C0007308DF80A3001238DF80B30064B1B68F6
:10401C0002AA1046984700BF05B05DF804FB00BF2C
:10402C00DC020020E0020020D402002010B5074B77
:10403C001C78064B1B781846FFF77EFB0346194687
:10404C002046FFF789FF00BF10BD00BFD90200203A
:10405C0010B582B0FFF7F8F803468DF80730284BFF
:10406C001B68DB439AB2274B1B6842EA0304264BBE
:10407C001B781846FFF760FB03461A460123934052
:10408C002340002B04D0204B1B781846FFF7D2FBA3
:10409C009DF90730002B01DB002200E080221A4B37
:1040AC001A700020FFF748FB03461A46012303FA57
:1040BC0002F48020FFF740FB03461A46012393408D
:1040CC002343DB4319460F48FCF7E8FD8020FFF73C
:1040DC0033FB03461A46012303FA02F2084B1B6812
:1040EC001343074A13600023009305238DF8003017
:1040FC00064B1B686A461046984700BF02B010BDBD
:10410C00DC020020E0020020D9020020D4020020B2
:10411C0000B585B0FFF75CF80390039B03F4807344
:10412C00002B0CD0264B01221A7000230293022381
:10413C008DF80830234B1B6802AA10469847039B46
:10414C0003F40073002B0CD01D4B00221A700023BB
:10415C00019303238DF804301A4B1B6801AA1046F7
:10416C009847039B03F48063002B24D0144B1B78DB
:10417C00DBB2002B1FD0FFF755F9034683F0010388
:10418C00DBB2002B04D1104940F2F54001F02AFCBF
:10419C000B4B00221A700120FFF72EF95820FEF766
:1041AC0095FF0023009304238DF80030054B1B680A
:1041BC006A461046984700BF05B05DF804FB00BF87
:1041CC00D8020020D4020020B089000000B587B0CE
:1041DC00FFF72CF805902BE0059B0293029B93FABA
:1041EC00A3F30193019B0393039B002B01D1202389
:1041FC0003E0039BB3FA83F3DBB28DF813309DF825
:10420C0013301846FFF7CAFA03468DF812309DF8A2
:10421C001330012202FA03F3DB43059A1340059392
:10422C009DF813209DF8123011461846FFF794FEA6
:10423C00059B002BD0D100F01BF800BF07B05DF838
:10424C0004FB86B00190019B0493049B93FAA3F3A7
:10425C000393039B0593059B002B01D1202303E0C3
:10426C00059BB3FA83F3DBB2184606B07047000027
:10427C0010B58AB0764B1B7883F00103DBB2002BB0
:10428C0000F0E280D4E0089B03F00123002B09D05E
:10429C00089B03F001231846FFF7D3FF03468DF864
:1042AC00273005E00898FFF7CCFF03468DF8273040
:1042BC009DF827301846FFF771FA03468DF81F302A
:1042CC009DF81F301846FFF701FA0690069B1B68F5
:1042DC00002B04D15F4940F2615001F083FB9DF942
:1042EC001F30002B15DA069B1B68069A5168069A3C
:1042FC00928902A8984703468DF813309DF8133025
:10430C0083F00103DBB2002B57D0069B00221A600E
:10431C0053E09DF81F30184600F026F90590069BD7
:10432C001C68069B5968069B9B891A4602A8059B2C
:10433C00A04703468DF81330029B002B08D1039B3A
:10434C00002B30D0434940F27D5001F04BFB2AE06A
:10435C00039B059A9A421DD9069B02229A739DF8DB
:10436C002730012202FA03F3DB4319463A48FCF7E3
:10437C0095FC06238DF804309DF81F308DF806301F
:10438C0002238DF80730354B1B6801AA104698475D
:10439C0000BF4DE0039B059A9A4204D02D4940F290
:1043AC008C5001F01FFB9DF8133083F00103DBB23E
:1043BC00002B02D0069B00221A60FFF705FA9DF82D
:1043CC002730012202FA03F3DA43254B1B68134012
:1043DC00234A1360069B9A68039B1A44069B9A60B7
:1043EC000299039A9DF81F301846FFF727F89DF89D
:1043FC001F301846FFF70CFA00BF9DF81F30184607
:10440C00FFF7D4F803461846FEF78EFE034683F0FA
:10441C000103DBB2002B16D04FF48070FEF784FE44
:10442C00034683F00103DBB2002BE6D100BF0BE0A7
:10443C00094B1A680A4B1B6813400893089B002B06
:10444C007FF421AF00E000BF00BF0AB010BD00BF79
:10445C00E4020020B0890000E0020020D402002019
:10446C00DC02002000B58BB0FEF790FE0790079B96
:10447C0009930023089330E0099B0493049B93FA5F
:10448C00A3F30393039B0593059B002B01D12023DE
:10449C0003E0059BB3FA83F3DBB28DF819309DF87A
:1044AC0019301846FEF7F2FD03469BB21846FEF78C
:1044BC0050FE0346002B07D09DF81930012202FA5A
:1044CC0003F3089A134308939DF81930012202FA5A
:1044DC0003F3DB43099A13400993099B002BCBD1BF
:1044EC00089B03F40003002B14BF012300238DF859
:1044FC001B30089B23F40003089321E0089B0193D5
:10450C00019B93FAA3F30093009B0293029B002B55
:10451C0001D1202303E0029BB3FA83F3DBB28DF8C5
:10452C001A309DF81A300E4A52F8233098479DF8ED
:10453C001A30012202FA03F3DB43089A1340089362
:10454C00089B002BDAD1FFF793FE9DF81B30002B54
:10455C0001D0044B984700BF0BB05DF804FB00BFC3
:10456C000C8A00005D40000000B583B003468DF856
:10457C0007309DF807301846FFF74EF803461846EB
:10458C00FEF76AFE0346184603B05DF804FB08B557
:10459C004C20FEF79BFD00BF08BD000000B583B0AA
:1045AC0003468DF807309DF90730002B04DA1449C7
:1045BC0040F6DF0001F016FA002000F0F7F89DF845
:1045CC0007301846FFF7B8F803461A460123934004
:1045DC00DA430C4B1B6813400A4A13609DF80730F2
:1045EC0003F00803002B04D19DF807301846FEF7A2
:1045FC00D7FE002000F0EEF800BF03B05DF804FB1E
:10460C00B0890000DC02002084B00346ADF806300F
:10461C00BDF8063003F1804303F5803300221A60A5
:10462C00BDF8063003F1804303F580331B68039318
:10463C00039B00BF04B0704782B00346ADF8063050
:10464C00BDF8063003F1804303F580331B68002B63
:10465C0014BF01230023DBB2184602B070470000E0
:10466C0008B54FF48070FFF7E7FF0346002B06D028
:10467C00044B1B6898474FF48070FFF7C5FF00BFD1
:10468C0008BD00BF0804002086B00390029101927F
:10469C0001238DF817309DF81730204A039B1360C7
:1046AC001E4A029B53601D4A019B9360039B44F27C
:1046BC000102934212D0039B44F20202934220D196
:1046CC00019B164AD360154BDB681B68134A936138
:1046DC00124BDB685B68114AD36112E0019B0F4AF5
:1046EC0013610E4B1B699B680C4A53610B4B1B6986
:1046FC001B680A4A9361094B1B695B68074AD361C3
:10470C0000BF72B600BF00BF9DF81730DBB2002BA4
:10471C00FAD162B600BF00BF06B070470C0400208F
:10472C0000B587B003900291019272B600BF039B53
:10473C0044F20102934207D0039B44F202029342DB
:10474C0005D1019B059303E0019B049300E000BF9E
:10475C00074B1B6803F00103002B00D000BE019A2D
:10476C0002990398FFF790FF00BF07B05DF804FBB8
:10477C00F0ED00E072B600BF034B1B680133024A38
:10478C00136000BF704700BF2C040020064B1B6851
:10479C00013B054A1360044B1B68002B01D162B628
:1047AC0000BF00BF704700BF2C04002000B583B0D1
:1047BC00019000F025F80346012B03D00449432057
:1047CC0001F010F9FFF7D6FF00BF03B05DF804FB52
:1047DC009C8A000000B583B003468DF8073000F0CA
:1047EC000FF80346012B03D00449512001F0FAF8CD
:1047FC00FFF7CCFF00BF03B05DF804FB9C8A000000
:10480C0084B0EFF305830193019BC3F30803039377
:10481C00039B002B0DD1EFF314830093009B0293A9
:10482C00029B03F00103002B0CBF01230023DBB21E
:10483C0000E00123184604B07047000008B5044B93
:10484C001B68044A12681046984700BF08BD00BF99
:10485C00300400203404002082B00190019B03F04E
:10486C000303002B0CBF01230023DBB2184602B05C
:10487C007047000000B585B00190002303930EE053
:10488C000B4A039B52F82330002B05D0084A039B9C
:10489C0052F8233001989847039B01330393039BF1
:1048AC00032BEDD900BF00BF05B05DF804FB00BFC2
:1048BC004804002082B001900091019B1B78013BC1
:1048CC00052B61D801A252F823F000BFF14800007B
:1048DC00F94800001F4900005149000071490000CF
:1048EC008D490000009B00221A704EE0009B0122B3
:1048FC001A70019B1A89009B9A81019B9A88009BD4
:10490C00DA81019BDA68009B9A60009B00221A7482
:10491C003BE0009B02221A70019B1A89009B9A8132
:10492C00019B9A88009BDA81019BDA68009B9A6054
:10493C00019B9B7D062B0CBF01230023DAB2009B4D
:10494C001A7422E0009B03221A70019BDA88009BE8
:10495C009A81019B1A89009BDA81019BDA68009B82
:10496C009A6012E0009B04221A70019BDA88009B6B
:10497C009A81009B0022DA81009B00229A6004E05D
:10498C00009B05221A7000E000BF00BF02B0704708
:10499C0084B001900091019B0393039A009B9A426F
:1049AC0006D2039B1B68B3F1FF3F01D0012300E04B
:1049BC00002303F00103DBB2184604B0704782B049
:1049CC000190019B5B8803339B00019A13441846AA
:1049DC0002B0704700B583B0019000910198FFF7C9
:1049EC00EEFF0246009B934201D2022311E0019B91
:1049FC009B884FF6FF72934208D0019B1B88002BBB
:104A0C0004D0019B9B68B3F1FF3F01D1012300E06F
:104A1C000023184603B05DF804FB000000B583B01A
:104A2C000190019B002B13D00D4BDB681A46019BA8
:104A3C0093420DD30A4B1B691A46019B934207D82C
:104A4C000198FFF709FF0346002B01D0012300E07A
:104A5C00002303F00103DBB2184603B05DF804FB3E
:104A6C000000002084B00190009148F20963039388
:104A7C000023ADF80A3027E0BDF80A20164913468A
:104A8C009B0013449B000B4404331B68009A9A420E
:104A9C0015D9BDF80A20104913469B0013449B00FE
:104AAC000B4404331B6803F58053009A9A4206D2D8
:104ABC0000230393019BBDF80A201A8008E0BDF87F
:104ACC000A300133ADF80A30BDF80A30012BD3D9C6
:104ADC00039B184604B070476804002082B0019014
:104AEC000091009B9B7D022B09D9019B1A89009B8D
:104AFC00DB8813449BB203339AB2019B1A81019B4E
:104B0C005A89009BDB88D31A9BB2033B9AB2019B58
:104B1C005A8100BF02B0704700B583B0074B1B68C9
:104B2C001946002300930823054A064802F09EFF0D
:104B3C000346184603B05DF804FB00BF9004002048
:104B4C00548B00000000002000B585B00390039941
:104B5C00002300930823044A044802F087FF03460D
:104B6C00184605B05DF804FB5C8B000000000020CB
:104B7C0000B585B003460091ADF80630BDF80620AF
:104B8C00244913469B0013449B000B4404331B68BD
:104B9C0003F580530293009B1B680393039B002B2C
:104BAC0004D00398FFF70BFF039026E0BDF8062016
:104BBC00184913469B0013449B000B4404331B6899
:104BCC000833039319E002990398FFF703FF034698
:104BDC00022B10D0022B10DC002B02D0012B05D0A5
:104BEC000BE0009B039A1A6001230EE00398FFF779
:104BFC00E6FE039001E0002307E002990398FFF71B
:104C0C00C7FE0346002BDED10023184605B05DF825
:104C1C0004FB00BF6804002000B585B00190009132
:104C2C00019B5B681846FFF7F9FE0346002B19D071
:104C3C00019B1A89244B1B899A4213D1019B1A6838
:104C4C00019B5B689B689A420CD1019B5B6819467F
:104C5C000098FFF707FF0346002B0CBF012300232E
:104C6C00DBB22CE0009B00221A8023E0002302938D
:104C7C0010E0029B0393039B9A68019B1B689A426A
:104C8C0008D1029A019B5A600F4B1A89019B1A8119
:104C9C00012314E0009B1B8802AA11461846FFF75B
:104CAC0067FF0346002BE4D1009B1B8801339AB2AB
:104CBC00009B1A80009B1B88012BD7D90023184618
:104CCC0005B05DF804FB00BF9804002000B587B068
:104CDC000390029101920093324B1B78DBB283F06C
:104CEC000103DBB2002B02D048F2016355E0019BBB
:104CFC00002B02D0009B002B49D148F204634CE0FE
:104D0C00009B9B881946284A0B469B000B449B0032
:104D1C0013441B78002B33D124E0009B1B680593B4
:104D2C00039B002B06D0059B9A88039B1B889A42F9
:104D3C0000D017E0029B002B06D0059B1A88029B23
:104D4C001B889A4200D00DE0059B9A68019B1A6063
:104D5C00009B1A68019B5A60144B1A89019B1A819B
:104D6C0000231AE0009B9B88009A11461846FFF717
:104D7C00FFFE0346002BD0D1009B00221A6000E0FE
:104D8C0000BF009B9B8801339AB2009B9A80009BCA
:104D9C009B88012BB4D948F20963184607B05DF81B
:104DAC0004FB00BF3C040020680400209804002091
:104DBC0000B583B00190054B0199184600F063FED5
:104DCC000346184603B05DF804FB00BF58040020EE
:104DDC0000B583B00190044B0199184600F06CFEAD
:104DEC0000BF03B05DF804FB5804002008B50A4B63
:104DFC001B68002B04D109494FF4247000F0F2FD1C
:104E0C000121054800F06CFE0346002B14BF012362
:104E1C000023DBB2184608BD44040020008B0000C0
:104E2C0000B587B003900291039B02229A750299F8
:104E3C00039B1A1D002300930423074802F016FE5F
:104E4C000590059B002B01D1002301E048F20D6376
:104E5C00184607B05DF804FB0000002000B587B0D1
:104E6C0003900291039B1B69002B01D0032200E0ED
:104E7C000122039B9A75029B08331946039B03F18D
:104E8C000C02002300930423074802F0EFFD059069
:104E9C00059B002B01D1002301E048F20D6318465D
:104EAC0007B05DF804FB00BF0000002000B587B020
:104EBC0003900291039B1B78032B01D1052200E088
:104ECC000622039B9A75029B04331946039B03F13C
:104EDC000802002300930423074802F0C7FD059045
:104EEC00059B002B01D1002301E048F20D6318460D
:104EFC0007B05DF804FB00BF0000002000B587B0D0
:104F0C0003900B46ADF80A30039900230093042359
:104F1C000D4A0E4802F0AAFD0590059B002B02D00D
:104F2C0048F20D630BE0BDF80A20094913469B00BB
:104F3C0013449B000B44103301221A7000231846B3
:104F4C0007B05DF804FB00BF648B0000000000207C
:104F5C006804002000B589B0019002AB00221A60F1
:104F6C005A609A60019BDB6802930DF1160202AB4A
:104F7C0011461846FFF750FE0346002B12D0039B38
:104F8C000693069B9A88019BDA80069B1A88019BE4
:104F9C001A81039BBDF8162011461846FFF7AEFF89
:104FAC00079002E048F209630793079B184609B083
:104FBC005DF804FB00B587B00190019B981D02AA17
:104FCC000D4B0021FFF782FE0590059B002B08D1AD
:104FDC00039B094A928811461846FFF78FFF0590EC
:104FEC0004E008220021044803F0FEF9059B184652
:104FFC0007B05DF804FB00BFA804002000B587B023
:10500C0003900291039B01229A75029B0C33184664
:10501C00039B1A69039BDB889B00002100910146CE
:10502C00074802F023FD0590059B002B01D10023BE
:10503C0001E048F20D63184607B05DF804FB00BFB1
:10504C000000002082B0184B1B8901339AB2164B1A
:10505C001A81154B00225A80134B00221A7300231D
:10506C00ADF8063018E0BDF80620104913469B0039
:10507C0013449B000B441A78BDF80630002A0CBF71
:10508C0001220022D1B2084A13440A469A72BDF892
:10509C0006300133ADF80630BDF80630012BE2D9ED
:1050AC0000BF00BF02B070479804002068040020C5
:1050BC0084B0019000238DF80F300023ADF80C3034
:1050CC0031E0BDF80C301C4A13449B7A002B25D0E0
:1050DC00BDF80C30184A134400229A72BDF80C200B
:1050EC00164913469B0013449B000B440C331B685E
:1050FC00002B13D1BDF80C20104913469B00134410
:10510C009B000B4410331B78002B07D0019BBDF880
:10511C000C201A8001238DF80F3008E0BDF80C30FC
:10512C000133ADF80C30BDF80C30012BC9D99DF80A
:10513C000F30184604B07047980400206804002013
:10514C0008B5084B05221A70074B02229A80064BB1
:10515C001B68194600230122044802F0D8FC0346C0
:10516C00184608BD98040020900400200000002080
:10517C0000B583B0164B5B88ADF80230BDF8022049
:10518C00144913469B0013449B000B440C331B68BF
:10519C00002B14D10E4B04221A70BDF802200D49BD
:1051AC0013469B0013449B000B4404331B681946A5
:1051BC0000230122084802F0AAFC019002E0FFF74C
:1051CC00BFFF0190019B184603B05DF804FB00BFC4
:1051DC0098040020680400200000002000B587B06F
:1051EC00104B5B680593104B1A680F4B9B889B0008
:1051FC0013440493059B5B880333ADF80E30094BC5
:10520C0003221A700499074B5A68BDF80E309B00A4
:10521C0000200090054802F029FC0346184607B010
:10522C005DF804FB9804002090040020000000208E
:10523C0000B583B00A4B5B880A491846FFF798FC07
:10524C000346002B03D0FFF7C9FF019002E0FFF7E4
:10525C008FFF0190019B184603B05DF804FB00BF63
:10526C00980400209C04002008B50A4B06221A70F2
:10527C00084B5B881946084A0B469B000B449B0065
:10528C00134404331B681846FFF75EFC03461846AC
:10529C0008BD00BF980400206804002008B5054B29
:1052AC0007221A70034B00225A60FFF735FC0346A5
:1052BC00184608BD9804002008B50D48FFF7F8FE05
:1052CC00034683F00103DBB2002B0BD0094B002209
:1052DC001A70084B00225A80064B00225A6041F685
:1052EC001D5302E0FFF7A4FF0346184608BD00BF9C
:1052FC009A0400209804002082B0094B5B6801934B
:10530C00019B5B880333ADF80230064B9A88BDF8DD
:10531C00023013449AB2034B9A8000BF02B070471C
:10532C00980400209004002082B01E4B1B6801934F
:10533C001D4B5B8819461D4A0B469B000B449B007A
:10534C00134404331B68174A1360174B5B881946C8
:10535C00164A0B469B000B449B0013440433019AE2
:10536C001A60114B5B8819460E4B98880F4A0B46F6
:10537C009B000B449B001344083302461A80094BD4
:10538C0002229A80084B5B881946084A0B469B0000
:10539C000B449B001344103300221A7000BF02B060
:1053AC00704700BF9004002098040020680400207F
:1053BC0008B51A4B1B78072B2CD801A252F823F0F6
:1053CC00ED5300002154000021540000F95300005B
:1053DC000554000011540000115400001954000031
:1053EC00FFF730FE0D4B01221A7014E0FFF784FF1B
:1053FC000A4B02221A700EE0FFF796FF074B0622AB
:10540C001A7008E0054B07221A7004E0034B0122C6
:10541C001A7000E000BF00BF08BD00BF9804002058
:10542C0000B587B00190009148F20E630593019B83
:10543C00002B05D0624B00225A604FF40643BAE0B1
:10544C00009B1B79032B00F2A98001A252F823F0D8
:10545C006D5400007B5400000955000029550000D4
:10546C00009B01221A71FFF757FB059099E000236E
:10547C008DF813300023ADF810302BE0BDF8102060
:10548C00504913469B0013449B000B441B78022B82
:10549C001BD1BDF810204B4913469B0013449B00B5
:1054AC000B4400221A7001238DF81330BDF8102024
:1054BC00444913469B0013449B000B4404331B6864
:1054CC001846FFF741FB059008E0BDF8103001339A
:1054DC00ADF81030BDF81030012BCFD99DF813303A
:1054EC0083F00103DBB2002B5AD0354B01221A702A
:1054FC00334B00225A6041F61D535CE0009B0022A6
:10550C001A71314B02229A802F4B1B6819460023CB
:10551C0001222E4802F0FBFA059042E0009B00228B
:10552C001A712B4B5B88ADF80E30274B1B6802931E
:10553C00BDF80E20234913469B0013449B000B44DB
:10554C0004331B68204A1360BDF80E201D49134616
:10555C009B0013449B000B440433029A1A60BDF861
:10556C000E20194B9888174913469B0013449B0037
:10557C000B44083302461A80134B02229A80BDF862
:10558C000E20104913469B0013449B000B44002231
:10559C001A700298FFF7D8FA059002E000BF00E0FD
:1055AC0000BF059B002B05D0054B00225A6048F22A
:1055BC000D6300E00023184607B05DF804FB00BF44
:1055CC003C0400206804002090040020000000200F
:1055DC009804002000B587B001900091009B9B8A35
:1055EC001A4613469B0013449B003B4A13440493F6
:1055FC00019B002B06D000990498FFF76FFA4FF42B
:10560C00064364E0049B5A68049B1B899B0013446B
:10561C000393009B9B7D062B4DD801A252F823F0DF
:10562C0071560000955600007D560000895600000A
:10563C0049560000A1560000BB560000274B002223
:10564C005A60009B9B69254A136025492348FFF744
:10565C00E3FA034683F00103DBB2002B02D048F2DD
:10566C00096334E003990098FFF7DAFB059026E014
:10567C0003990098FFF7F2FB059020E0039900983E
:10568C00FFF7BCFC05901AE003990098FFF70EFC9D
:10569C00059014E0009B06229A75104B5B68104A2B
:1056AC00128811461846FFF729FC059007E041F6D1
:1056BC001D53059303E048F20E63059300BF059B51
:1056CC00002B03D000990498FFF708FA059B1846A5
:1056DC0007B05DF804FB00BF68040020B004002094
:1056EC00BC04002000B585B001900091019B002BFB
:1056FC0002D04FF4064329E0009B1B79022B1BD0F0
:10570C00022B1DDC002B02D0012B08D018E0009BD3
:10571C0002221A710098FFF71DFC039015E0009807
:10572C00FFF748FC0390039B48F2096293420BD1AC
:10573C0041F61D53039307E041F61D53039304E018
:10574C0048F20E63039300E000BF039B184605B0BC
:10575C005DF804FB00B585B00190019B002B02D0D5
:10576C004FF406433DE0214B1B7B002B03D01F4B1A
:10577C0000221A7301E0FFF71BFE1C4B1B78013B48
:10578C00062B29D801A252F823F000BFB557000010
:10579C00BD570000C5570000CD570000E55700006D
:1057AC00D5570000DD570000FFF786FD039017E08A
:1057BC00FFF73EFD039013E0FFF710FD03900FE0A1
:1057CC00FFF7D6FC03900BE0FFF74EFD039007E0CC
:1057DC00FFF764FD039003E048F20E63039300BFF0
:1057EC00039B184605B05DF804FB00BF980400202D
:1057FC0000B589B00190404B1B68002B05D13F4888
:10580C00FFF7D6FA03463C4A13603B4B1B68002B50
:10581C0004D13B494FF4B46000F0E4F8364B1B68FC
:10582C001B78013B052B2CD801A252F823F000BFAA
:10583C005558000065580000655800007558000068
:10584C0075580000855800002B4B1B6819460198B1
:10585C00FFF7E6FD019018E0274B1B6819460198ED
:10586C00FFF7B8FE019010E0234B1B681946019816
:10587C00FFF738FF019008E00198FFF76BFF0190EC
:10588C0003E048F20E63019300BF019B002B2BD069
:10589C0003AB00221A605A609A60DA601A61019BAD
:1058AC0041F61D52934201D0019B00E0002304936A
:1058BC00114B1B6803AA11461846FEF7FBFF03ABFE
:1058CC001846FEF7D7FF0C4B00221A6000230193F9
:1058DC000A48FFF77DFAFFF789FA034683F00103C4
:1058EC00DBB2002B02D186E700BF00E000BF00BF97
:1058FC0009B05DF804FB00BFC0040020C404002004
:10590C00008B000000B583B00190019B5B681846CA
:10591C00FFF76EFF00BF03B05DF804FB1EF0040F31
:10592C001CBFEFF309800AE0EFF308800549064A33
:10593C00884201D8904202D88D464FF00000034BAC
:10594C00184700000000042000E0032095590000D7
:10595C0000BF00BFBFF34F8F00BF064BDB6803F4E3
:10596C00E0620449044B1343CB60BFF34F8F00BF7D
:10597C0000BFFDE700ED00E00400FA0500B583B0C0
:10598C000190FFF7E7FF000000B587B00190019B85
:10599C000493124B9B6A0393104BDB6A0023059311
:1059AC000AE00122059B02FA03F31A46039B1340FB
:1059BC00002B059B01330593059B192BF1D9084B43
:1059CC001B6803F00103002B00D000BE0198FFF709
:1059DC00D5FF00BF07B05DF804FB00BF00ED00E091
:1059EC00F0ED00E000B585B003460091ADF806304F
:1059FC00BDF806300293009B039302AB1A460021BC
:105A0C0044F20200FEF78CFE00BF05B05DF804FB0B
:105A1C0086B001900091019B53E8021F1FFAA1F27E
:105A2C00D888824202BFBFF32F8F00230DE0D889A4
:105A3C0002449889824228BF121AC1EA024243E802
:105A4C0002200028E8D14FF001038DF80F300590AB
:105A5C0002910492029A009B1A609DF80F30DBB2FF
:105A6C00184606B0704784B00190019951E8023F86
:105A7C00C3EA234341E80232002AF7D1039202938E
:105A8C0000BF04B0704700B585B001900091009B39
:105A9C0019460198FFF7BCFF0346002B07D0019B6A
:105AAC001B68009A528813440393039B00E0002365
:105ABC00184605B05DF804FB00B583B00190009169
:105ACC00009B1A88009B5B889A4204D10198FFF7CF
